{
  "contractName": "MyToken",
  "abi": [
    {
      "inputs": [
        {
          "internalType": "address",
          "name": "initialOwner",
          "type": "address"
        }
      ],
      "stateMutability": "nonpayable",
      "type": "constructor"
    },
    {
      "inputs": [],
      "name": "ERC721EnumerableForbiddenBatchMint",
      "type": "error"
    },
    {
      "inputs": [
        {
          "internalType": "address",
          "name": "sender",
          "type": "address"
        },
        {
          "internalType": "uint256",
          "name": "tokenId",
          "type": "uint256"
        },
        {
          "internalType": "address",
          "name": "owner",
          "type": "address"
        }
      ],
      "name": "ERC721IncorrectOwner",
      "type": "error"
    },
    {
      "inputs": [
        {
          "internalType": "address",
          "name": "operator",
          "type": "address"
        },
        {
          "internalType": "uint256",
          "name": "tokenId",
          "type": "uint256"
        }
      ],
      "name": "ERC721InsufficientApproval",
      "type": "error"
    },
    {
      "inputs": [
        {
          "internalType": "address",
          "name": "approver",
          "type": "address"
        }
      ],
      "name": "ERC721InvalidApprover",
      "type": "error"
    },
    {
      "inputs": [
        {
          "internalType": "address",
          "name": "operator",
          "type": "address"
        }
      ],
      "name": "ERC721InvalidOperator",
      "type": "error"
    },
    {
      "inputs": [
        {
          "internalType": "address",
          "name": "owner",
          "type": "address"
        }
      ],
      "name": "ERC721InvalidOwner",
      "type": "error"
    },
    {
      "inputs": [
        {
          "internalType": "address",
          "name": "receiver",
          "type": "address"
        }
      ],
      "name": "ERC721InvalidReceiver",
      "type": "error"
    },
    {
      "inputs": [
        {
          "internalType": "address",
          "name": "sender",
          "type": "address"
        }
      ],
      "name": "ERC721InvalidSender",
      "type": "error"
    },
    {
      "inputs": [
        {
          "internalType": "uint256",
          "name": "tokenId",
          "type": "uint256"
        }
      ],
      "name": "ERC721NonexistentToken",
      "type": "error"
    },
    {
      "inputs": [
        {
          "internalType": "address",
          "name": "owner",
          "type": "address"
        },
        {
          "internalType": "uint256",
          "name": "index",
          "type": "uint256"
        }
      ],
      "name": "ERC721OutOfBoundsIndex",
      "type": "error"
    },
    {
      "inputs": [
        {
          "internalType": "address",
          "name": "owner",
          "type": "address"
        }
      ],
      "name": "OwnableInvalidOwner",
      "type": "error"
    },
    {
      "inputs": [
        {
          "internalType": "address",
          "name": "account",
          "type": "address"
        }
      ],
      "name": "OwnableUnauthorizedAccount",
      "type": "error"
    },
    {
      "anonymous": false,
      "inputs": [
        {
          "indexed": true,
          "internalType": "address",
          "name": "owner",
          "type": "address"
        },
        {
          "indexed": true,
          "internalType": "address",
          "name": "approved",
          "type": "address"
        },
        {
          "indexed": true,
          "internalType": "uint256",
          "name": "tokenId",
          "type": "uint256"
        }
      ],
      "name": "Approval",
      "type": "event"
    },
    {
      "anonymous": false,
      "inputs": [
        {
          "indexed": true,
          "internalType": "address",
          "name": "owner",
          "type": "address"
        },
        {
          "indexed": true,
          "internalType": "address",
          "name": "operator",
          "type": "address"
        },
        {
          "indexed": false,
          "internalType": "bool",
          "name": "approved",
          "type": "bool"
        }
      ],
      "name": "ApprovalForAll",
      "type": "event"
    },
    {
      "anonymous": false,
      "inputs": [
        {
          "indexed": false,
          "internalType": "uint256",
          "name": "_fromTokenId",
          "type": "uint256"
        },
        {
          "indexed": false,
          "internalType": "uint256",
          "name": "_toTokenId",
          "type": "uint256"
        }
      ],
      "name": "BatchMetadataUpdate",
      "type": "event"
    },
    {
      "anonymous": false,
      "inputs": [
        {
          "indexed": false,
          "internalType": "uint256",
          "name": "_tokenId",
          "type": "uint256"
        }
      ],
      "name": "MetadataUpdate",
      "type": "event"
    },
    {
      "anonymous": false,
      "inputs": [
        {
          "indexed": true,
          "internalType": "address",
          "name": "previousOwner",
          "type": "address"
        },
        {
          "indexed": true,
          "internalType": "address",
          "name": "newOwner",
          "type": "address"
        }
      ],
      "name": "OwnershipTransferred",
      "type": "event"
    },
    {
      "anonymous": false,
      "inputs": [
        {
          "indexed": true,
          "internalType": "address",
          "name": "from",
          "type": "address"
        },
        {
          "indexed": true,
          "internalType": "address",
          "name": "to",
          "type": "address"
        },
        {
          "indexed": true,
          "internalType": "uint256",
          "name": "tokenId",
          "type": "uint256"
        }
      ],
      "name": "Transfer",
      "type": "event"
    },
    {
      "inputs": [
        {
          "internalType": "address",
          "name": "to",
          "type": "address"
        },
        {
          "internalType": "uint256",
          "name": "tokenId",
          "type": "uint256"
        }
      ],
      "name": "approve",
      "outputs": [],
      "stateMutability": "nonpayable",
      "type": "function"
    },
    {
      "inputs": [
        {
          "internalType": "address",
          "name": "owner",
          "type": "address"
        }
      ],
      "name": "balanceOf",
      "outputs": [
        {
          "internalType": "uint256",
          "name": "",
          "type": "uint256"
        }
      ],
      "stateMutability": "view",
      "type": "function"
    },
    {
      "inputs": [
        {
          "internalType": "uint256",
          "name": "tokenId",
          "type": "uint256"
        }
      ],
      "name": "getApproved",
      "outputs": [
        {
          "internalType": "address",
          "name": "",
          "type": "address"
        }
      ],
      "stateMutability": "view",
      "type": "function"
    },
    {
      "inputs": [
        {
          "internalType": "address",
          "name": "owner",
          "type": "address"
        },
        {
          "internalType": "address",
          "name": "operator",
          "type": "address"
        }
      ],
      "name": "isApprovedForAll",
      "outputs": [
        {
          "internalType": "bool",
          "name": "",
          "type": "bool"
        }
      ],
      "stateMutability": "view",
      "type": "function"
    },
    {
      "inputs": [],
      "name": "name",
      "outputs": [
        {
          "internalType": "string",
          "name": "",
          "type": "string"
        }
      ],
      "stateMutability": "view",
      "type": "function"
    },
    {
      "inputs": [],
      "name": "owner",
      "outputs": [
        {
          "internalType": "address",
          "name": "",
          "type": "address"
        }
      ],
      "stateMutability": "view",
      "type": "function"
    },
    {
      "inputs": [
        {
          "internalType": "uint256",
          "name": "tokenId",
          "type": "uint256"
        }
      ],
      "name": "ownerOf",
      "outputs": [
        {
          "internalType": "address",
          "name": "",
          "type": "address"
        }
      ],
      "stateMutability": "view",
      "type": "function"
    },
    {
      "inputs": [],
      "name": "renounceOwnership",
      "outputs": [],
      "stateMutability": "nonpayable",
      "type": "function"
    },
    {
      "inputs": [
        {
          "internalType": "address",
          "name": "from",
          "type": "address"
        },
        {
          "internalType": "address",
          "name": "to",
          "type": "address"
        },
        {
          "internalType": "uint256",
          "name": "tokenId",
          "type": "uint256"
        }
      ],
      "name": "safeTransferFrom",
      "outputs": [],
      "stateMutability": "nonpayable",
      "type": "function"
    },
    {
      "inputs": [
        {
          "internalType": "address",
          "name": "from",
          "type": "address"
        },
        {
          "internalType": "address",
          "name": "to",
          "type": "address"
        },
        {
          "internalType": "uint256",
          "name": "tokenId",
          "type": "uint256"
        },
        {
          "internalType": "bytes",
          "name": "data",
          "type": "bytes"
        }
      ],
      "name": "safeTransferFrom",
      "outputs": [],
      "stateMutability": "nonpayable",
      "type": "function"
    },
    {
      "inputs": [
        {
          "internalType": "address",
          "name": "operator",
          "type": "address"
        },
        {
          "internalType": "bool",
          "name": "approved",
          "type": "bool"
        }
      ],
      "name": "setApprovalForAll",
      "outputs": [],
      "stateMutability": "nonpayable",
      "type": "function"
    },
    {
      "inputs": [],
      "name": "symbol",
      "outputs": [
        {
          "internalType": "string",
          "name": "",
          "type": "string"
        }
      ],
      "stateMutability": "view",
      "type": "function"
    },
    {
      "inputs": [
        {
          "internalType": "uint256",
          "name": "index",
          "type": "uint256"
        }
      ],
      "name": "tokenByIndex",
      "outputs": [
        {
          "internalType": "uint256",
          "name": "",
          "type": "uint256"
        }
      ],
      "stateMutability": "view",
      "type": "function"
    },
    {
      "inputs": [
        {
          "internalType": "address",
          "name": "owner",
          "type": "address"
        },
        {
          "internalType": "uint256",
          "name": "index",
          "type": "uint256"
        }
      ],
      "name": "tokenOfOwnerByIndex",
      "outputs": [
        {
          "internalType": "uint256",
          "name": "",
          "type": "uint256"
        }
      ],
      "stateMutability": "view",
      "type": "function"
    },
    {
      "inputs": [],
      "name": "totalSupply",
      "outputs": [
        {
          "internalType": "uint256",
          "name": "",
          "type": "uint256"
        }
      ],
      "stateMutability": "view",
      "type": "function"
    },
    {
      "inputs": [
        {
          "internalType": "address",
          "name": "from",
          "type": "address"
        },
        {
          "internalType": "address",
          "name": "to",
          "type": "address"
        },
        {
          "internalType": "uint256",
          "name": "tokenId",
          "type": "uint256"
        }
      ],
      "name": "transferFrom",
      "outputs": [],
      "stateMutability": "nonpayable",
      "type": "function"
    },
    {
      "inputs": [
        {
          "internalType": "address",
          "name": "newOwner",
          "type": "address"
        }
      ],
      "name": "transferOwnership",
      "outputs": [],
      "stateMutability": "nonpayable",
      "type": "function"
    },
    {
      "inputs": [
        {
          "internalType": "address",
          "name": "to",
          "type": "address"
        },
        {
          "internalType": "uint256",
          "name": "tokenId",
          "type": "uint256"
        },
        {
          "internalType": "string",
          "name": "uri",
          "type": "string"
        }
      ],
      "name": "safeMint",
      "outputs": [],
      "stateMutability": "nonpayable",
      "type": "function"
    },
    {
      "inputs": [
        {
          "internalType": "uint256",
          "name": "tokenId",
          "type": "uint256"
        }
      ],
      "name": "tokenURI",
      "outputs": [
        {
          "internalType": "string",
          "name": "",
          "type": "string"
        }
      ],
      "stateMutability": "view",
      "type": "function"
    },
    {
      "inputs": [
        {
          "internalType": "bytes4",
          "name": "interfaceId",
          "type": "bytes4"
        }
      ],
      "name": "supportsInterface",
      "outputs": [
        {
          "internalType": "bool",
          "name": "",
          "type": "bool"
        }
      ],
      "stateMutability": "view",
      "type": "function"
    }
  ],
  "bytecode": "0x608060405234801562000010575f80fd5b50604051620032503803806200325083398181016040528101906200003691906200027c565b806040518060400160405280600781526020017f4d79546f6b656e000000000000000000000000000000000000000000000000008152506040518060400160405280600381526020017f4d544b0000000000000000000000000000000000000000000000000000000000815250815f9081620000b3919062000510565b508060019081620000c5919062000510565b5050505f73ffffffffffffffffffffffffffffffffffffffff168173ffffffffffffffffffffffffffffffffffffffff16036200013b575f6040517f1e4fbdf700000000000000000000000000000000000000000000000000000000815260040162000132919062000605565b60405180910390fd5b6200014c816200015460201b60201c565b505062000620565b5f600b5f9054906101000a900473ffffffffffffffffffffffffffffffffffffffff16905081600b5f6101000a81548173ffffffffffffffffffffffffffffffffffffffff021916908373ffffffffffffffffffffffffffffffffffffffff1602179055508173ffffffffffffffffffffffffffffffffffffffff168173ffffffffffffffffffffffffffffffffffffffff167f8be0079c531659141344cd1fd0a4f28419497f9722a3daafe3b4186f6b6457e060405160405180910390a35050565b5f80fd5b5f73ffffffffffffffffffffffffffffffffffffffff82169050919050565b5f62000246826200021b565b9050919050565b62000258816200023a565b811462000263575f80fd5b50565b5f8151905062000276816200024d565b92915050565b5f6020828403121562000294576200029362000217565b5b5f620002a38482850162000266565b91505092915050565b5f81519050919050565b7f4e487b71000000000000000000000000000000000000000000000000000000005f52604160045260245ffd5b7f4e487b71000000000000000000000000000000000000000000000000000000005f52602260045260245ffd5b5f60028204905060018216806200032857607f821691505b6020821081036200033e576200033d620002e3565b5b50919050565b5f819050815f5260205f209050919050565b5f6020601f8301049050919050565b5f82821b905092915050565b5f60088302620003a27fffffffffffffffffffffffffffffffffffffffffffffffffffffffffffffffff8262000365565b620003ae868362000365565b95508019841693508086168417925050509392505050565b5f819050919050565b5f819050919050565b5f620003f8620003f2620003ec84620003c6565b620003cf565b620003c6565b9050919050565b5f819050919050565b6200041383620003d8565b6200042b6200042282620003ff565b84845462000371565b825550505050565b5f90565b6200044162000433565b6200044e81848462000408565b505050565b5b818110156200047557620004695f8262000437565b60018101905062000454565b5050565b601f821115620004c4576200048e8162000344565b620004998462000356565b81016020851015620004a9578190505b620004c1620004b88562000356565b83018262000453565b50505b505050565b5f82821c905092915050565b5f620004e65f1984600802620004c9565b1980831691505092915050565b5f620005008383620004d5565b9150826002028217905092915050565b6200051b82620002ac565b67ffffffffffffffff811115620005375762000536620002b6565b5b62000543825462000310565b6200055082828562000479565b5f60209050601f83116001811462000586575f841562000571578287015190505b6200057d8582620004f3565b865550620005ec565b601f198416620005968662000344565b5f5b82811015620005bf5784890151825560018201915060208501945060208101905062000598565b86831015620005df5784890151620005db601f891682620004d5565b8355505b6001600288020188555050505b505050505050565b620005ff816200023a565b82525050565b5f6020820190506200061a5f830184620005f4565b92915050565b612c22806200062e5f395ff3fe608060405234801561000f575f80fd5b506004361061012a575f3560e01c806370a08231116100ab578063b88d4fde1161006f578063b88d4fde14610340578063c87b56dd1461035c578063cd279c7c1461038c578063e985e9c5146103a8578063f2fde38b146103d85761012a565b806370a08231146102ae578063715018a6146102de5780638da5cb5b146102e857806395d89b4114610306578063a22cb465146103245761012a565b806323b872dd116100f257806323b872dd146101e65780632f745c591461020257806342842e0e146102325780634f6ccce71461024e5780636352211e1461027e5761012a565b806301ffc9a71461012e57806306fdde031461015e578063081812fc1461017c578063095ea7b3146101ac57806318160ddd146101c8575b5f80fd5b61014860048036038101906101439190612083565b6103f4565b60405161015591906120c8565b60405180910390f35b610166610405565b604051610173919061216b565b60405180910390f35b610196600480360381019061019191906121be565b610494565b6040516101a39190612228565b60405180910390f35b6101c660048036038101906101c1919061226b565b6104af565b005b6101d06104c5565b6040516101dd91906122b8565b60405180910390f35b61020060048036038101906101fb91906122d1565b6104d1565b005b61021c6004803603810190610217919061226b565b6105d0565b60405161022991906122b8565b60405180910390f35b61024c600480360381019061024791906122d1565b610674565b005b610268600480360381019061026391906121be565b610693565b60405161027591906122b8565b60405180910390f35b610298600480360381019061029391906121be565b610705565b6040516102a59190612228565b60405180910390f35b6102c860048036038101906102c39190612321565b610716565b6040516102d591906122b8565b60405180910390f35b6102e66107cc565b005b6102f06107df565b6040516102fd9190612228565b60405180910390f35b61030e610807565b60405161031b919061216b565b60405180910390f35b61033e60048036038101906103399190612376565b610897565b005b61035a600480360381019061035591906124e0565b6108ad565b005b610376600480360381019061037191906121be565b6108ca565b604051610383919061216b565b60405180910390f35b6103a660048036038101906103a191906125fe565b6108dc565b005b6103c260048036038101906103bd919061266a565b6108fd565b6040516103cf91906120c8565b60405180910390f35b6103f260048036038101906103ed9190612321565b61098b565b005b5f6103fe82610a0f565b9050919050565b60605f8054610413906126d5565b80601f016020809104026020016040519081016040528092919081815260200182805461043f906126d5565b801561048a5780601f106104615761010080835404028352916020019161048a565b820191905f5260205f20905b81548152906001019060200180831161046d57829003601f168201915b5050505050905090565b5f61049e82610a6f565b506104a882610af5565b9050919050565b6104c182826104bc610b2e565b610b35565b5050565b5f600880549050905090565b5f73ffffffffffffffffffffffffffffffffffffffff168273ffffffffffffffffffffffffffffffffffffffff1603610541575f6040517f64a0ae920000000000000000000000000000000000000000000000000000000081526004016105389190612228565b60405180910390fd5b5f610554838361054f610b2e565b610b47565b90508373ffffffffffffffffffffffffffffffffffffffff168173ffffffffffffffffffffffffffffffffffffffff16146105ca578382826040517f64283d7b0000000000000000000000000000000000000000000000000000000081526004016105c193929190612705565b60405180910390fd5b50505050565b5f6105da83610716565b821061061f5782826040517fa57d13dc00000000000000000000000000000000000000000000000000000000815260040161061692919061273a565b60405180910390fd5b60065f8473ffffffffffffffffffffffffffffffffffffffff1673ffffffffffffffffffffffffffffffffffffffff1681526020019081526020015f205f8381526020019081526020015f2054905092915050565b61068e83838360405180602001604052805f8152506108ad565b505050565b5f61069c6104c5565b82106106e1575f826040517fa57d13dc0000000000000000000000000000000000000000000000000000000081526004016106d892919061273a565b60405180910390fd5b600882815481106106f5576106f4612761565b5b905f5260205f2001549050919050565b5f61070f82610a6f565b9050919050565b5f8073ffffffffffffffffffffffffffffffffffffffff168273ffffffffffffffffffffffffffffffffffffffff1603610787575f6040517f89c62b6400000000000000000000000000000000000000000000000000000000815260040161077e9190612228565b60405180910390fd5b60035f8373ffffffffffffffffffffffffffffffffffffffff1673ffffffffffffffffffffffffffffffffffffffff1681526020019081526020015f20549050919050565b6107d4610b5c565b6107dd5f610be3565b565b5f600b5f9054906101000a900473ffffffffffffffffffffffffffffffffffffffff16905090565b606060018054610816906126d5565b80601f0160208091040260200160405190810160405280929190818152602001828054610842906126d5565b801561088d5780601f106108645761010080835404028352916020019161088d565b820191905f5260205f20905b81548152906001019060200180831161087057829003601f168201915b5050505050905090565b6108a96108a2610b2e565b8383610ca6565b5050565b6108b88484846104d1565b6108c484848484610e0f565b50505050565b60606108d582610fc1565b9050919050565b6108e4610b5c565b6108ee83836110cc565b6108f882826110e9565b505050565b5f60055f8473ffffffffffffffffffffffffffffffffffffffff1673ffffffffffffffffffffffffffffffffffffffff1681526020019081526020015f205f8373ffffffffffffffffffffffffffffffffffffffff1673ffffffffffffffffffffffffffffffffffffffff1681526020019081526020015f205f9054906101000a900460ff16905092915050565b610993610b5c565b5f73ffffffffffffffffffffffffffffffffffffffff168173ffffffffffffffffffffffffffffffffffffffff1603610a03575f6040517f1e4fbdf70000000000000000000000000000000000000000000000000000000081526004016109fa9190612228565b60405180910390fd5b610a0c81610be3565b50565b5f634906490660e01b7bffffffffffffffffffffffffffffffffffffffffffffffffffffffff1916827bffffffffffffffffffffffffffffffffffffffffffffffffffffffff19161480610a685750610a6782611143565b5b9050919050565b5f80610a7a836111bc565b90505f73ffffffffffffffffffffffffffffffffffffffff168173ffffffffffffffffffffffffffffffffffffffff1603610aec57826040517f7e273289000000000000000000000000000000000000000000000000000000008152600401610ae391906122b8565b60405180910390fd5b80915050919050565b5f60045f8381526020019081526020015f205f9054906101000a900473ffffffffffffffffffffffffffffffffffffffff169050919050565b5f33905090565b610b4283838360016111f5565b505050565b5f610b538484846113b4565b90509392505050565b610b64610b2e565b73ffffffffffffffffffffffffffffffffffffffff16610b826107df565b73ffffffffffffffffffffffffffffffffffffffff1614610be157610ba5610b2e565b6040517f118cdaa7000000000000000000000000000000000000000000000000000000008152600401610bd89190612228565b60405180910390fd5b565b5f600b5f9054906101000a900473ffffffffffffffffffffffffffffffffffffffff16905081600b5f6101000a81548173ffffffffffffffffffffffffffffffffffffffff021916908373ffffffffffffffffffffffffffffffffffffffff1602179055508173ffffffffffffffffffffffffffffffffffffffff168173ffffffffffffffffffffffffffffffffffffffff167f8be0079c531659141344cd1fd0a4f28419497f9722a3daafe3b4186f6b6457e060405160405180910390a35050565b5f73ffffffffffffffffffffffffffffffffffffffff168273ffffffffffffffffffffffffffffffffffffffff1603610d1657816040517f5b08ba18000000000000000000000000000000000000000000000000000000008152600401610d0d9190612228565b60405180910390fd5b8060055f8573ffffffffffffffffffffffffffffffffffffffff1673ffffffffffffffffffffffffffffffffffffffff1681526020019081526020015f205f8473ffffffffffffffffffffffffffffffffffffffff1673ffffffffffffffffffffffffffffffffffffffff1681526020019081526020015f205f6101000a81548160ff0219169083151502179055508173ffffffffffffffffffffffffffffffffffffffff168373ffffffffffffffffffffffffffffffffffffffff167f17307eab39ab6107e8899845ad3d59bd9653f200f220920489ca2b5937696c3183604051610e0291906120c8565b60405180910390a3505050565b5f8373ffffffffffffffffffffffffffffffffffffffff163b1115610fbb578273ffffffffffffffffffffffffffffffffffffffff1663150b7a02610e52610b2e565b8685856040518563ffffffff1660e01b8152600401610e7494939291906127e0565b6020604051808303815f875af1925050508015610eaf57506040513d601f19601f82011682018060405250810190610eac919061283e565b60015b610f30573d805f8114610edd576040519150601f19603f3d011682016040523d82523d5f602084013e610ee2565b606091505b505f815103610f2857836040517f64a0ae92000000000000000000000000000000000000000000000000000000008152600401610f1f9190612228565b60405180910390fd5b805181602001fd5b63150b7a0260e01b7bffffffffffffffffffffffffffffffffffffffffffffffffffffffff1916817bffffffffffffffffffffffffffffffffffffffffffffffffffffffff191614610fb957836040517f64a0ae92000000000000000000000000000000000000000000000000000000008152600401610fb09190612228565b60405180910390fd5b505b50505050565b6060610fcc82610a6f565b505f600a5f8481526020019081526020015f208054610fea906126d5565b80601f0160208091040260200160405190810160405280929190818152602001828054611016906126d5565b80156110615780601f1061103857610100808354040283529160200191611061565b820191905f5260205f20905b81548152906001019060200180831161104457829003601f168201915b505050505090505f6110716114ce565b90505f8151036110855781925050506110c7565b5f825111156110b95780826040516020016110a19291906128a3565b604051602081830303815290604052925050506110c7565b6110c2846114e4565b925050505b919050565b6110e5828260405180602001604052805f81525061154a565b5050565b80600a5f8481526020019081526020015f2090816111079190612a63565b507ff8e1a15aba9398e019f0b49df1a4fde98ee17ae345cb5f6b5e2c27f5033e8ce78260405161113791906122b8565b60405180910390a15050565b5f7f780e9d63000000000000000000000000000000000000000000000000000000007bffffffffffffffffffffffffffffffffffffffffffffffffffffffff1916827bffffffffffffffffffffffffffffffffffffffffffffffffffffffff191614806111b557506111b482611565565b5b9050919050565b5f60025f8381526020019081526020015f205f9054906101000a900473ffffffffffffffffffffffffffffffffffffffff169050919050565b808061122d57505f73ffffffffffffffffffffffffffffffffffffffff168273ffffffffffffffffffffffffffffffffffffffff1614155b1561135f575f61123c84610a6f565b90505f73ffffffffffffffffffffffffffffffffffffffff168373ffffffffffffffffffffffffffffffffffffffff16141580156112a657508273ffffffffffffffffffffffffffffffffffffffff168173ffffffffffffffffffffffffffffffffffffffff1614155b80156112b957506112b781846108fd565b155b156112fb57826040517fa9fbf51f0000000000000000000000000000000000000000000000000000000081526004016112f29190612228565b60405180910390fd5b811561135d57838573ffffffffffffffffffffffffffffffffffffffff168273ffffffffffffffffffffffffffffffffffffffff167f8c5be1e5ebec7d5bd14f71427d1e84f3dd0314c0f7b2291e5b200ac8c7c3b92560405160405180910390a45b505b8360045f8581526020019081526020015f205f6101000a81548173ffffffffffffffffffffffffffffffffffffffff021916908373ffffffffffffffffffffffffffffffffffffffff16021790555050505050565b5f806113c1858585611646565b90505f73ffffffffffffffffffffffffffffffffffffffff168173ffffffffffffffffffffffffffffffffffffffff1603611404576113ff84611851565b611443565b8473ffffffffffffffffffffffffffffffffffffffff168173ffffffffffffffffffffffffffffffffffffffff1614611442576114418185611895565b5b5b5f73ffffffffffffffffffffffffffffffffffffffff168573ffffffffffffffffffffffffffffffffffffffff16036114845761147f846119df565b6114c3565b8473ffffffffffffffffffffffffffffffffffffffff168173ffffffffffffffffffffffffffffffffffffffff16146114c2576114c18585611a9f565b5b5b809150509392505050565b606060405180602001604052805f815250905090565b60606114ef82610a6f565b505f6114f96114ce565b90505f8151116115175760405180602001604052805f815250611542565b8061152184611b23565b6040516020016115329291906128a3565b6040516020818303038152906040525b915050919050565b6115548383611bed565b6115605f848484610e0f565b505050565b5f7f80ac58cd000000000000000000000000000000000000000000000000000000007bffffffffffffffffffffffffffffffffffffffffffffffffffffffff1916827bffffffffffffffffffffffffffffffffffffffffffffffffffffffff1916148061162f57507f5b5e139f000000000000000000000000000000000000000000000000000000007bffffffffffffffffffffffffffffffffffffffffffffffffffffffff1916827bffffffffffffffffffffffffffffffffffffffffffffffffffffffff1916145b8061163f575061163e82611ce0565b5b9050919050565b5f80611651846111bc565b90505f73ffffffffffffffffffffffffffffffffffffffff168373ffffffffffffffffffffffffffffffffffffffff161461169257611691818486611d49565b5b5f73ffffffffffffffffffffffffffffffffffffffff168173ffffffffffffffffffffffffffffffffffffffff161461171d576116d15f855f806111f5565b600160035f8373ffffffffffffffffffffffffffffffffffffffff1673ffffffffffffffffffffffffffffffffffffffff1681526020019081526020015f205f82825403925050819055505b5f73ffffffffffffffffffffffffffffffffffffffff168573ffffffffffffffffffffffffffffffffffffffff161461179c57600160035f8773ffffffffffffffffffffffffffffffffffffffff1673ffffffffffffffffffffffffffffffffffffffff1681526020019081526020015f205f82825401925050819055505b8460025f8681526020019081526020015f205f6101000a81548173ffffffffffffffffffffffffffffffffffffffff021916908373ffffffffffffffffffffffffffffffffffffffff160217905550838573ffffffffffffffffffffffffffffffffffffffff168273ffffffffffffffffffffffffffffffffffffffff167fddf252ad1be2c89b69c2b068fc378daa952ba7f163c4a11628f55a4df523b3ef60405160405180910390a4809150509392505050565b60088054905060095f8381526020019081526020015f2081905550600881908060018154018082558091505060019003905f5260205f20015f909190919091505550565b5f61189f83610716565b90505f60075f8481526020019081526020015f20549050818114611976575f60065f8673ffffffffffffffffffffffffffffffffffffffff1673ffffffffffffffffffffffffffffffffffffffff1681526020019081526020015f205f8481526020019081526020015f205490508060065f8773ffffffffffffffffffffffffffffffffffffffff1673ffffffffffffffffffffffffffffffffffffffff1681526020019081526020015f205f8481526020019081526020015f20819055508160075f8381526020019081526020015f2081905550505b60075f8481526020019081526020015f205f905560065f8573ffffffffffffffffffffffffffffffffffffffff1673ffffffffffffffffffffffffffffffffffffffff1681526020019081526020015f205f8381526020019081526020015f205f905550505050565b5f60016008805490506119f29190612b5f565b90505f60095f8481526020019081526020015f205490505f60088381548110611a1e57611a1d612761565b5b905f5260205f20015490508060088381548110611a3e57611a3d612761565b5b905f5260205f2001819055508160095f8381526020019081526020015f208190555060095f8581526020019081526020015f205f90556008805480611a8657611a85612b92565b5b600190038181905f5260205f20015f9055905550505050565b5f6001611aab84610716565b611ab59190612b5f565b90508160065f8573ffffffffffffffffffffffffffffffffffffffff1673ffffffffffffffffffffffffffffffffffffffff1681526020019081526020015f205f8381526020019081526020015f20819055508060075f8481526020019081526020015f2081905550505050565b60605f6001611b3184611e0c565b0190505f8167ffffffffffffffff811115611b4f57611b4e6123bc565b5b6040519080825280601f01601f191660200182016040528015611b815781602001600182028036833780820191505090505b5090505f82602001820190505b600115611be2578080600190039150507f3031323334353637383961626364656600000000000000000000000000000000600a86061a8153600a8581611bd757611bd6612bbf565b5b0494505f8503611b8e575b819350505050919050565b5f73ffffffffffffffffffffffffffffffffffffffff168273ffffffffffffffffffffffffffffffffffffffff1603611c5d575f6040517f64a0ae92000000000000000000000000000000000000000000000000000000008152600401611c549190612228565b60405180910390fd5b5f611c6983835f610b47565b90505f73ffffffffffffffffffffffffffffffffffffffff168173ffffffffffffffffffffffffffffffffffffffff1614611cdb575f6040517f73c6ac6e000000000000000000000000000000000000000000000000000000008152600401611cd29190612228565b60405180910390fd5b505050565b5f7f01ffc9a7000000000000000000000000000000000000000000000000000000007bffffffffffffffffffffffffffffffffffffffffffffffffffffffff1916827bffffffffffffffffffffffffffffffffffffffffffffffffffffffff1916149050919050565b611d54838383611f5d565b611e07575f73ffffffffffffffffffffffffffffffffffffffff168373ffffffffffffffffffffffffffffffffffffffff1603611dc857806040517f7e273289000000000000000000000000000000000000000000000000000000008152600401611dbf91906122b8565b60405180910390fd5b81816040517f177e802f000000000000000000000000000000000000000000000000000000008152600401611dfe92919061273a565b60405180910390fd5b505050565b5f805f90507a184f03e93ff9f4daa797ed6e38ed64bf6a1f0100000000000000008310611e68577a184f03e93ff9f4daa797ed6e38ed64bf6a1f0100000000000000008381611e5e57611e5d612bbf565b5b0492506040810190505b6d04ee2d6d415b85acef81000000008310611ea5576d04ee2d6d415b85acef81000000008381611e9b57611e9a612bbf565b5b0492506020810190505b662386f26fc100008310611ed457662386f26fc100008381611eca57611ec9612bbf565b5b0492506010810190505b6305f5e1008310611efd576305f5e1008381611ef357611ef2612bbf565b5b0492506008810190505b6127108310611f22576127108381611f1857611f17612bbf565b5b0492506004810190505b60648310611f455760648381611f3b57611f3a612bbf565b5b0492506002810190505b600a8310611f54576001810190505b80915050919050565b5f8073ffffffffffffffffffffffffffffffffffffffff168373ffffffffffffffffffffffffffffffffffffffff161415801561201457508273ffffffffffffffffffffffffffffffffffffffff168473ffffffffffffffffffffffffffffffffffffffff161480611fd55750611fd484846108fd565b5b8061201357508273ffffffffffffffffffffffffffffffffffffffff16611ffb83610af5565b73ffffffffffffffffffffffffffffffffffffffff16145b5b90509392505050565b5f604051905090565b5f80fd5b5f80fd5b5f7fffffffff0000000000000000000000000000000000000000000000000000000082169050919050565b6120628161202e565b811461206c575f80fd5b50565b5f8135905061207d81612059565b92915050565b5f6020828403121561209857612097612026565b5b5f6120a58482850161206f565b91505092915050565b5f8115159050919050565b6120c2816120ae565b82525050565b5f6020820190506120db5f8301846120b9565b92915050565b5f81519050919050565b5f82825260208201905092915050565b5f5b838110156121185780820151818401526020810190506120fd565b5f8484015250505050565b5f601f19601f8301169050919050565b5f61213d826120e1565b61214781856120eb565b93506121578185602086016120fb565b61216081612123565b840191505092915050565b5f6020820190508181035f8301526121838184612133565b905092915050565b5f819050919050565b61219d8161218b565b81146121a7575f80fd5b50565b5f813590506121b881612194565b92915050565b5f602082840312156121d3576121d2612026565b5b5f6121e0848285016121aa565b91505092915050565b5f73ffffffffffffffffffffffffffffffffffffffff82169050919050565b5f612212826121e9565b9050919050565b61222281612208565b82525050565b5f60208201905061223b5f830184612219565b92915050565b61224a81612208565b8114612254575f80fd5b50565b5f8135905061226581612241565b92915050565b5f806040838503121561228157612280612026565b5b5f61228e85828601612257565b925050602061229f858286016121aa565b9150509250929050565b6122b28161218b565b82525050565b5f6020820190506122cb5f8301846122a9565b92915050565b5f805f606084860312156122e8576122e7612026565b5b5f6122f586828701612257565b935050602061230686828701612257565b9250506040612317868287016121aa565b9150509250925092565b5f6020828403121561233657612335612026565b5b5f61234384828501612257565b91505092915050565b612355816120ae565b811461235f575f80fd5b50565b5f813590506123708161234c565b92915050565b5f806040838503121561238c5761238b612026565b5b5f61239985828601612257565b92505060206123aa85828601612362565b9150509250929050565b5f80fd5b5f80fd5b7f4e487b71000000000000000000000000000000000000000000000000000000005f52604160045260245ffd5b6123f282612123565b810181811067ffffffffffffffff82111715612411576124106123bc565b5b80604052505050565b5f61242361201d565b905061242f82826123e9565b919050565b5f67ffffffffffffffff82111561244e5761244d6123bc565b5b61245782612123565b9050602081019050919050565b828183375f83830152505050565b5f61248461247f84612434565b61241a565b9050828152602081018484840111156124a05761249f6123b8565b5b6124ab848285612464565b509392505050565b5f82601f8301126124c7576124c66123b4565b5b81356124d7848260208601612472565b91505092915050565b5f805f80608085870312156124f8576124f7612026565b5b5f61250587828801612257565b945050602061251687828801612257565b9350506040612527878288016121aa565b925050606085013567ffffffffffffffff8111156125485761254761202a565b5b612554878288016124b3565b91505092959194509250565b5f67ffffffffffffffff82111561257a576125796123bc565b5b61258382612123565b9050602081019050919050565b5f6125a261259d84612560565b61241a565b9050828152602081018484840111156125be576125bd6123b8565b5b6125c9848285612464565b509392505050565b5f82601f8301126125e5576125e46123b4565b5b81356125f5848260208601612590565b91505092915050565b5f805f6060848603121561261557612614612026565b5b5f61262286828701612257565b9350506020612633868287016121aa565b925050604084013567ffffffffffffffff8111156126545761265361202a565b5b612660868287016125d1565b9150509250925092565b5f80604083850312156126805761267f612026565b5b5f61268d85828601612257565b925050602061269e85828601612257565b9150509250929050565b7f4e487b71000000000000000000000000000000000000000000000000000000005f52602260045260245ffd5b5f60028204905060018216806126ec57607f821691505b6020821081036126ff576126fe6126a8565b5b50919050565b5f6060820190506127185f830186612219565b61272560208301856122a9565b6127326040830184612219565b949350505050565b5f60408201905061274d5f830185612219565b61275a60208301846122a9565b9392505050565b7f4e487b71000000000000000000000000000000000000000000000000000000005f52603260045260245ffd5b5f81519050919050565b5f82825260208201905092915050565b5f6127b28261278e565b6127bc8185612798565b93506127cc8185602086016120fb565b6127d581612123565b840191505092915050565b5f6080820190506127f35f830187612219565b6128006020830186612219565b61280d60408301856122a9565b818103606083015261281f81846127a8565b905095945050505050565b5f8151905061283881612059565b92915050565b5f6020828403121561285357612852612026565b5b5f6128608482850161282a565b91505092915050565b5f81905092915050565b5f61287d826120e1565b6128878185612869565b93506128978185602086016120fb565b80840191505092915050565b5f6128ae8285612873565b91506128ba8284612873565b91508190509392505050565b5f819050815f5260205f209050919050565b5f6020601f8301049050919050565b5f82821b905092915050565b5f600883026129227fffffffffffffffffffffffffffffffffffffffffffffffffffffffffffffffff826128e7565b61292c86836128e7565b95508019841693508086168417925050509392505050565b5f819050919050565b5f61296761296261295d8461218b565b612944565b61218b565b9050919050565b5f819050919050565b6129808361294d565b61299461298c8261296e565b8484546128f3565b825550505050565b5f90565b6129a861299c565b6129b3818484612977565b505050565b5b818110156129d6576129cb5f826129a0565b6001810190506129b9565b5050565b601f821115612a1b576129ec816128c6565b6129f5846128d8565b81016020851015612a04578190505b612a18612a10856128d8565b8301826129b8565b50505b505050565b5f82821c905092915050565b5f612a3b5f1984600802612a20565b1980831691505092915050565b5f612a538383612a2c565b9150826002028217905092915050565b612a6c826120e1565b67ffffffffffffffff811115612a8557612a846123bc565b5b612a8f82546126d5565b612a9a8282856129da565b5f60209050601f831160018114612acb575f8415612ab9578287015190505b612ac38582612a48565b865550612b2a565b601f198416612ad9866128c6565b5f5b82811015612b0057848901518255600182019150602085019450602081019050612adb565b86831015612b1d5784890151612b19601f891682612a2c565b8355505b6001600288020188555050505b505050505050565b7f4e487b71000000000000000000000000000000000000000000000000000000005f52601160045260245ffd5b5f612b698261218b565b9150612b748361218b565b9250828203905081811115612b8c57612b8b612b32565b5b92915050565b7f4e487b71000000000000000000000000000000000000000000000000000000005f52603160045260245ffd5b7f4e487b71000000000000000000000000000000000000000000000000000000005f52601260045260245ffdfea264697066735822122093f2f00f9c6fb6aba202b6787ad318f7535e8f25215bf0207dea3c3ac672121964736f6c63430008150033",
  "immutableReferences": {},
  "source": "// SPDX-License-Identifier: MIT\n// Compatible with OpenZeppelin Contracts ^5.0.0\n\npragma solidity ^0.8.20;\n\nimport \"@openzeppelin/contracts/token/ERC721/ERC721.sol\";\nimport \"@openzeppelin/contracts/token/ERC721/extensions/ERC721Enumerable.sol\";\nimport \"@openzeppelin/contracts/token/ERC721/extensions/ERC721URIStorage.sol\";\nimport \"@openzeppelin/contracts/access/Ownable.sol\";\n\ncontract MyToken is ERC721, ERC721Enumerable, ERC721URIStorage, Ownable {\n    constructor(address initialOwner)\n        ERC721(\"MyToken\", \"MTK\")\n        Ownable(initialOwner)\n    {}\n\n    function safeMint(address to, uint256 tokenId, string memory uri)\n        public\n        onlyOwner\n    {\n        _safeMint(to, tokenId);\n        _setTokenURI(tokenId, uri);\n    }\n\n    // The following functions are overrides required by Solidity.\n\n    function _update(address to, uint256 tokenId, address auth)\n        internal\n        override(ERC721, ERC721Enumerable)\n        returns (address)\n    {\n        return super._update(to, tokenId, auth);\n    }\n\n    function _increaseBalance(address account, uint128 value)\n        internal\n        override(ERC721, ERC721Enumerable)\n    {\n        super._increaseBalance(account, value);\n    }\n\n    function tokenURI(uint256 tokenId)\n        public\n        view\n        override(ERC721, ERC721URIStorage)\n        returns (string memory)\n    {\n        return super.tokenURI(tokenId);\n    }\n\n    function supportsInterface(bytes4 interfaceId)\n        public\n        view\n        override(ERC721, ERC721Enumerable, ERC721URIStorage)\n        returns (bool)\n    {\n        return super.supportsInterface(interfaceId);\n    }\n}",
  "sourcePath": "/Users/nikitagolovanov/Desktop/MSK_Hackathon/contracts/Car.sol",
  "compiler": {
    "name": "solc",
    "version": "0.8.21+commit.d9974bed.Emscripten.clang"
  },
  "schemaVersion": "3.4.16",
  "updatedAt": "2024-06-04T13:07:37.989Z",
  "devdoc": {
    "errors": {
      "ERC721EnumerableForbiddenBatchMint()": [
        {
          "details": "Batch mint is not allowed."
        }
      ],
      "ERC721IncorrectOwner(address,uint256,address)": [
        {
          "details": "Indicates an error related to the ownership over a particular token. Used in transfers.",
          "params": {
            "owner": "Address of the current owner of a token.",
            "sender": "Address whose tokens are being transferred.",
            "tokenId": "Identifier number of a token."
          }
        }
      ],
      "ERC721InsufficientApproval(address,uint256)": [
        {
          "details": "Indicates a failure with the `operator`s approval. Used in transfers.",
          "params": {
            "operator": "Address that may be allowed to operate on tokens without being their owner.",
            "tokenId": "Identifier number of a token."
          }
        }
      ],
      "ERC721InvalidApprover(address)": [
        {
          "details": "Indicates a failure with the `approver` of a token to be approved. Used in approvals.",
          "params": {
            "approver": "Address initiating an approval operation."
          }
        }
      ],
      "ERC721InvalidOperator(address)": [
        {
          "details": "Indicates a failure with the `operator` to be approved. Used in approvals.",
          "params": {
            "operator": "Address that may be allowed to operate on tokens without being their owner."
          }
        }
      ],
      "ERC721InvalidOwner(address)": [
        {
          "details": "Indicates that an address can't be an owner. For example, `address(0)` is a forbidden owner in EIP-20. Used in balance queries.",
          "params": {
            "owner": "Address of the current owner of a token."
          }
        }
      ],
      "ERC721InvalidReceiver(address)": [
        {
          "details": "Indicates a failure with the token `receiver`. Used in transfers.",
          "params": {
            "receiver": "Address to which tokens are being transferred."
          }
        }
      ],
      "ERC721InvalidSender(address)": [
        {
          "details": "Indicates a failure with the token `sender`. Used in transfers.",
          "params": {
            "sender": "Address whose tokens are being transferred."
          }
        }
      ],
      "ERC721NonexistentToken(uint256)": [
        {
          "details": "Indicates a `tokenId` whose `owner` is the zero address.",
          "params": {
            "tokenId": "Identifier number of a token."
          }
        }
      ],
      "ERC721OutOfBoundsIndex(address,uint256)": [
        {
          "details": "An `owner`'s token query was out of bounds for `index`. NOTE: The owner being `address(0)` indicates a global out of bounds index."
        }
      ],
      "OwnableInvalidOwner(address)": [
        {
          "details": "The owner is not a valid owner account. (eg. `address(0)`)"
        }
      ],
      "OwnableUnauthorizedAccount(address)": [
        {
          "details": "The caller account is not authorized to perform an operation."
        }
      ]
    },
    "events": {
      "Approval(address,address,uint256)": {
        "details": "Emitted when `owner` enables `approved` to manage the `tokenId` token."
      },
      "ApprovalForAll(address,address,bool)": {
        "details": "Emitted when `owner` enables or disables (`approved`) `operator` to manage all of its assets."
      },
      "BatchMetadataUpdate(uint256,uint256)": {
        "details": "This event emits when the metadata of a range of tokens is changed. So that the third-party platforms such as NFT market could timely update the images and related attributes of the NFTs."
      },
      "MetadataUpdate(uint256)": {
        "details": "This event emits when the metadata of a token is changed. So that the third-party platforms such as NFT market could timely update the images and related attributes of the NFT."
      },
      "Transfer(address,address,uint256)": {
        "details": "Emitted when `tokenId` token is transferred from `from` to `to`."
      }
    },
    "kind": "dev",
    "methods": {
      "approve(address,uint256)": {
        "details": "See {IERC721-approve}."
      },
      "balanceOf(address)": {
        "details": "See {IERC721-balanceOf}."
      },
      "getApproved(uint256)": {
        "details": "See {IERC721-getApproved}."
      },
      "isApprovedForAll(address,address)": {
        "details": "See {IERC721-isApprovedForAll}."
      },
      "name()": {
        "details": "See {IERC721Metadata-name}."
      },
      "owner()": {
        "details": "Returns the address of the current owner."
      },
      "ownerOf(uint256)": {
        "details": "See {IERC721-ownerOf}."
      },
      "renounceOwnership()": {
        "details": "Leaves the contract without owner. It will not be possible to call `onlyOwner` functions. Can only be called by the current owner. NOTE: Renouncing ownership will leave the contract without an owner, thereby disabling any functionality that is only available to the owner."
      },
      "safeTransferFrom(address,address,uint256)": {
        "details": "See {IERC721-safeTransferFrom}."
      },
      "safeTransferFrom(address,address,uint256,bytes)": {
        "details": "See {IERC721-safeTransferFrom}."
      },
      "setApprovalForAll(address,bool)": {
        "details": "See {IERC721-setApprovalForAll}."
      },
      "symbol()": {
        "details": "See {IERC721Metadata-symbol}."
      },
      "tokenByIndex(uint256)": {
        "details": "See {IERC721Enumerable-tokenByIndex}."
      },
      "tokenOfOwnerByIndex(address,uint256)": {
        "details": "See {IERC721Enumerable-tokenOfOwnerByIndex}."
      },
      "totalSupply()": {
        "details": "See {IERC721Enumerable-totalSupply}."
      },
      "transferFrom(address,address,uint256)": {
        "details": "See {IERC721-transferFrom}."
      },
      "transferOwnership(address)": {
        "details": "Transfers ownership of the contract to a new account (`newOwner`). Can only be called by the current owner."
      }
    },
    "version": 1
  },
  "userdoc": {
    "kind": "user",
    "methods": {},
    "version": 1
  }
}